{
    "contractName": "UserWallet",
    "abi": [
        {
            "inputs": [
                {
                    "internalType": "address",
                    "name": "_owner",
                    "type": "address"
                }
            ],
            "stateMutability": "nonpayable",
            "type": "constructor"
        },
        {
            "anonymous": false,
            "inputs": [
                {
                    "indexed": true,
                    "internalType": "address",
                    "name": "eoaSigner",
                    "type": "address"
                },
                {
                    "indexed": true,
                    "internalType": "string",
                    "name": "contractVersion",
                    "type": "string"
                }
            ],
            "name": "Register",
            "type": "event"
        },
        {
            "inputs": [],
            "name": "owner",
            "outputs": [
                {
                    "internalType": "address",
                    "name": "",
                    "type": "address"
                }
            ],
            "stateMutability": "view",
            "type": "function"
        },
        {
            "inputs": [
                {
                    "internalType": "uint256",
                    "name": "amount",
                    "type": "uint256"
                },
                {
                    "internalType": "string",
                    "name": "nonce",
                    "type": "string"
                },
                {
                    "internalType": "bytes",
                    "name": "signature",
                    "type": "bytes"
                }
            ],
            "name": "withdrawEth",
            "outputs": [],
            "stateMutability": "nonpayable",
            "type": "function"
        },
        {
            "inputs": [
                {
                    "internalType": "contract SomeToken",
                    "name": "token",
                    "type": "address"
                },
                {
                    "internalType": "uint256",
                    "name": "amount",
                    "type": "uint256"
                },
                {
                    "internalType": "string",
                    "name": "nonce",
                    "type": "string"
                },
                {
                    "internalType": "bytes",
                    "name": "signature",
                    "type": "bytes"
                }
            ],
            "name": "withdrawToken",
            "outputs": [],
            "stateMutability": "nonpayable",
            "type": "function"
        },
        {
            "stateMutability": "payable",
            "type": "receive"
        }
    ],
    "bytecode": "608060405234801561001057600080fd5b506040516108bc3803806108bc83398101604081905261002f91610094565b600080546001600160a01b0383166001600160a01b03199091168117825560408051671d995c9cda5bdb8d60c21b81529051908190036008018120927f6ba0831d2f62ae5cbf7214bcc1d79c5da1d705f12811efda0beaa840006f874e91a3506100c4565b6000602082840312156100a657600080fd5b81516001600160a01b03811681146100bd57600080fd5b9392505050565b6107e9806100d36000396000f3fe6080604052600436106100385760003560e01c80638da5cb5b14610044578063d46ce2d914610080578063f4923059146100a257600080fd5b3661003f57005b600080fd5b34801561005057600080fd5b50600054610064906001600160a01b031681565b6040516001600160a01b03909116815260200160405180910390f35b34801561008c57600080fd5b506100a061009b3660046105fc565b6100c2565b005b3480156100ae57600080fd5b506100a06100bd366004610688565b610363565b6001826040516100d29190610725565b9081526040519081900360200190205460ff161561012d5760405162461bcd60e51b81526020600482015260136024820152726e6f6e636520616c726561647920757365642160681b60448201526064015b60405180910390fd5b6001808360405161013e9190610725565b90815260405160209181900382018120805460ff1916931515939093179092556000916101d79161017791339188918891309101610738565b60408051601f1981840301815282825280516020918201207f19457468657265756d205369676e6564204d6573736167653a0a33320000000084830152603c8085019190915282518085039091018152605c909301909152815191012090565b6000549091506001600160a01b03166101f082846104ab565b6001600160a01b03161461023b5760405162461bcd60e51b8152602060048201526012602482015271696e76616c6964207369676e61747572652160701b6044820152606401610124565b6040516370a0823160e01b81523060048201526000906001600160a01b038716906370a0823190602401602060405180830381865afa158015610282573d6000803e3d6000fd5b505050506040513d601f19601f820116820180604052508101906102a69190610778565b9050808511156102e95760405162461bcd60e51b815260206004820152600e60248201526d62616c616e6365206973206c6f7760901b6044820152606401610124565b60405163a9059cbb60e01b8152336004820152602481018690526001600160a01b0387169063a9059cbb906044016020604051808303816000875af1158015610336573d6000803e3d6000fd5b505050506040513d601f19601f8201168201806040525081019061035a9190610791565b50505050505050565b6001826040516103739190610725565b9081526040519081900360200190205460ff16156103c95760405162461bcd60e51b81526020600482015260136024820152726e6f6e636520616c726561647920757365642160681b6044820152606401610124565b600180836040516103da9190610725565b90815260405160209181900382018120805460ff1916931515939093179092556000916104139161017791339188918891309101610738565b6000549091506001600160a01b031661042c82846104ab565b6001600160a01b0316146104775760405162461bcd60e51b8152602060048201526012602482015271696e76616c6964207369676e61747572652160701b6044820152606401610124565b604051339085156108fc029086906000818181858888f193505050501580156104a4573d6000803e3d6000fd5b5050505050565b6000806000806104ba8561052a565b6040805160008152602081018083528b905260ff8516918101919091526060810183905260808101829052929550909350915060019060a0016020604051602081039080840390855afa158015610515573d6000803e3d6000fd5b5050604051601f190151979650505050505050565b6000806000835160411461053d57600080fd5b5050506020810151604082015160609092015160001a92909190565b634e487b7160e01b600052604160045260246000fd5b600082601f83011261058057600080fd5b813567ffffffffffffffff8082111561059b5761059b610559565b604051601f8301601f19908116603f011681019082821181831017156105c3576105c3610559565b816040528381528660208588010111156105dc57600080fd5b836020870160208301376000602085830101528094505050505092915050565b6000806000806080858703121561061257600080fd5b84356001600160a01b038116811461062957600080fd5b935060208501359250604085013567ffffffffffffffff8082111561064d57600080fd5b6106598883890161056f565b9350606087013591508082111561066f57600080fd5b5061067c8782880161056f565b91505092959194509250565b60008060006060848603121561069d57600080fd5b83359250602084013567ffffffffffffffff808211156106bc57600080fd5b6106c88783880161056f565b935060408601359150808211156106de57600080fd5b506106eb8682870161056f565b9150509250925092565b6000815160005b8181101561071657602081850181015186830152016106fc565b50600093019283525090919050565b600061073182846106f5565b9392505050565b60006bffffffffffffffffffffffff19808760601b16835285601484015261076360348401866106f5565b60609490941b16835250506014019392505050565b60006020828403121561078a57600080fd5b5051919050565b6000602082840312156107a357600080fd5b8151801515811461073157600080fdfea26469706673582212208b05a1d8b193f42fe3395b8d28f04d1f2dccaa98b2268d75dc7b1785927d4bdf64736f6c63430008130033",
    "sourcePath": "/Users/danilelfimov/Desktop/React/web3auth-root/web3auth-contract/contracts/UserWallet.sol",
    "compiler": {
        "name": "solc",
        "version": "0.8.19+commit.7dd6d404"
    },
    "functionHashes": {
        "owner()": "8da5cb5b",
        "withdrawEth(uint256,string,bytes)": "f4923059",
        "withdrawToken(address,uint256,string,bytes)": "d46ce2d9"
    },
    "gasEstimates": {
        "creation": {
            "codeDepositCost": "405000",
            "executionCost": "infinite",
            "totalCost": "infinite"
        },
        "external": {
            "owner()": "2303",
            "withdrawEth(uint256,string,bytes)": "infinite",
            "withdrawToken(address,uint256,string,bytes)": "infinite"
        },
        "internal": {
            "recoverSigner(bytes32,bytes memory)": "infinite",
            "splitSignature(bytes memory)": "infinite",
            "withPrefix(bytes32)": "infinite"
        }
    }
}